{
  "contractName": "BlockMiner",
  "abi": [
    {
      "inputs": [],
      "payable": false,
      "stateMutability": "nonpayable",
      "type": "constructor"
    },
    {
      "constant": false,
      "inputs": [],
      "name": "mine",
      "outputs": [],
      "payable": false,
      "stateMutability": "nonpayable",
      "type": "function"
    }
  ],
  "bytecode": "0x6080604052348015600f57600080fd5b50600080819055506096806100256000396000f300608060405260043610603f576000357c0100000000000000000000000000000000000000000000000000000000900463ffffffff16806399f4b251146044575b600080fd5b348015604f57600080fd5b5060566058565b005b600160008082825401925050819055505600a165627a7a72305820c4f18b845bce3db66bb7f847dde8d014ce0fef086ce5092531ea5146f1c3aa7f0029",
  "source": "pragma solidity ^0.4.0; \n\n// used to \"waste\" blocks for truffle tests\ncontract BlockMiner {\n    uint blocksMined;\n\n    constructor () public {\n        blocksMined = 0;\n    }\n\n    function mine() public {\n       blocksMined += 1;\n    }\n}",
  "sourcePath": "/deploy_protocol/contracts/BlockMiner.sol",
  "compiler": {
    "name": "solc",
    "version": "0.4.24+commit.e67f0147.Emscripten.clang"
  },
  "schemaVersion": "2.0.0",
  "updatedAt": "2018-08-15T06:54:52.037Z"
}