{
  "contractName": "BlockMiner",
  "abi": [
    {
      "inputs": [],
      "payable": false,
      "stateMutability": "nonpayable",
      "type": "constructor"
    },
    {
      "constant": false,
      "inputs": [],
      "name": "mine",
      "outputs": [],
      "payable": false,
      "stateMutability": "nonpayable",
      "type": "function"
    }
  ],
  "bytecode": "0x6080604052348015600f57600080fd5b5060008055608e806100226000396000f300608060405260043610603e5763ffffffff7c010000000000000000000000000000000000000000000000000000000060003504166399f4b25181146043575b600080fd5b348015604e57600080fd5b5060556057565b005b6000805460010190555600a165627a7a7230582056d663037f132a2df48c3fc40d2527ec94ec264b2406939c5cd433d9f11da2460029",
  "source": "pragma solidity ^0.4.0; \n\n// used to \"waste\" blocks for truffle tests\ncontract BlockMiner {\n    uint blocksMined;\n\n    constructor () public {\n        blocksMined = 0;\n    }\n\n    function mine() public {\n       blocksMined += 1;\n    }\n}",
  "sourcePath": "/Users/magnusducatuslt/env/integration_tests/node_modules/dc-scripts/_env/contracts/tools/BlockMiner.sol",
  "compiler": {
    "name": "solc",
    "version": "0.4.24+commit.e67f0147.Emscripten.clang"
  },
  "schemaVersion": "2.0.1",
  "updatedAt": "2018-09-17T08:24:48.526Z"
}