{
  "contractName": "myDAppGame",
  "abi": [
    {
      "constant": true,
      "inputs": [
        {
          "name": "",
          "type": "bytes32"
        }
      ],
      "name": "disputes",
      "outputs": [
        {
          "name": "disputeSeed",
          "type": "bytes32"
        },
        {
          "name": "disputeBet",
          "type": "uint256"
        },
        {
          "name": "initiator",
          "type": "address"
        }
      ],
      "payable": false,
      "stateMutability": "view",
      "type": "function"
    },
    {
      "constant": false,
      "inputs": [
        {
          "name": "_id",
          "type": "bytes32"
        },
        {
          "name": "_session",
          "type": "uint256"
        },
        {
          "name": "_disputeBet",
          "type": "uint256"
        },
        {
          "name": "_gameData",
          "type": "uint256[]"
        },
        {
          "name": "_disputeSeed",
          "type": "bytes32"
        },
        {
          "name": "_sign",
          "type": "bytes"
        }
      ],
      "name": "openDispute",
      "outputs": [],
      "payable": false,
      "stateMutability": "nonpayable",
      "type": "function"
    },
    {
      "constant": true,
      "inputs": [],
      "name": "playerWL",
      "outputs": [
        {
          "name": "",
          "type": "address"
        }
      ],
      "payable": false,
      "stateMutability": "view",
      "type": "function"
    },
    {
      "constant": false,
      "inputs": [
        {
          "name": "_id",
          "type": "bytes32"
        },
        {
          "name": "_N",
          "type": "bytes"
        },
        {
          "name": "_E",
          "type": "bytes"
        },
        {
          "name": "_rsaSign",
          "type": "bytes"
        }
      ],
      "name": "resolveDispute",
      "outputs": [],
      "payable": false,
      "stateMutability": "nonpayable",
      "type": "function"
    },
    {
      "constant": false,
      "inputs": [
        {
          "name": "_id",
          "type": "bytes32"
        },
        {
          "name": "_playerBalance",
          "type": "uint256"
        },
        {
          "name": "_bankrollerBalance",
          "type": "uint256"
        },
        {
          "name": "_totalBet",
          "type": "uint256"
        },
        {
          "name": "_session",
          "type": "uint256"
        },
        {
          "name": "_sign",
          "type": "bytes"
        }
      ],
      "name": "updateChannel",
      "outputs": [],
      "payable": false,
      "stateMutability": "nonpayable",
      "type": "function"
    },
    {
      "constant": true,
      "inputs": [],
      "name": "config",
      "outputs": [
        {
          "name": "maxBet",
          "type": "uint256"
        },
        {
          "name": "minBet",
          "type": "uint256"
        },
        {
          "name": "gameDevReward",
          "type": "uint8"
        },
        {
          "name": "bankrollReward",
          "type": "uint8"
        },
        {
          "name": "platformReward",
          "type": "uint8"
        },
        {
          "name": "refererReward",
          "type": "uint8"
        }
      ],
      "payable": false,
      "stateMutability": "view",
      "type": "function"
    },
    {
      "constant": true,
      "inputs": [
        {
          "name": "",
          "type": "bytes32"
        }
      ],
      "name": "channels",
      "outputs": [
        {
          "name": "state",
          "type": "uint8"
        },
        {
          "name": "player",
          "type": "address"
        },
        {
          "name": "bankroller",
          "type": "address"
        },
        {
          "name": "playerBalance",
          "type": "uint256"
        },
        {
          "name": "bankrollerBalance",
          "type": "uint256"
        },
        {
          "name": "totalBet",
          "type": "uint256"
        },
        {
          "name": "session",
          "type": "uint256"
        },
        {
          "name": "endBlock",
          "type": "uint256"
        },
        {
          "name": "RSAHash",
          "type": "bytes32"
        }
      ],
      "payable": false,
      "stateMutability": "view",
      "type": "function"
    },
    {
      "constant": true,
      "inputs": [],
      "name": "rsa",
      "outputs": [
        {
          "name": "",
          "type": "address"
        }
      ],
      "payable": false,
      "stateMutability": "view",
      "type": "function"
    },
    {
      "constant": true,
      "inputs": [
        {
          "name": "_hash",
          "type": "bytes32"
        },
        {
          "name": "signature",
          "type": "bytes"
        }
      ],
      "name": "recoverSigner",
      "outputs": [
        {
          "name": "",
          "type": "address"
        }
      ],
      "payable": false,
      "stateMutability": "pure",
      "type": "function"
    },
    {
      "constant": false,
      "inputs": [
        {
          "name": "_id",
          "type": "bytes32"
        },
        {
          "name": "_playerBalance",
          "type": "uint256"
        },
        {
          "name": "_bankrollerBalance",
          "type": "uint256"
        },
        {
          "name": "_totalBet",
          "type": "uint256"
        },
        {
          "name": "_session",
          "type": "uint256"
        },
        {
          "name": "_close",
          "type": "bool"
        },
        {
          "name": "_sign",
          "type": "bytes"
        }
      ],
      "name": "closeByConsent",
      "outputs": [],
      "payable": false,
      "stateMutability": "nonpayable",
      "type": "function"
    },
    {
      "constant": true,
      "inputs": [],
      "name": "developer",
      "outputs": [
        {
          "name": "",
          "type": "address"
        }
      ],
      "payable": false,
      "stateMutability": "view",
      "type": "function"
    },
    {
      "constant": true,
      "inputs": [],
      "name": "safeTime",
      "outputs": [
        {
          "name": "",
          "type": "uint256"
        }
      ],
      "payable": false,
      "stateMutability": "view",
      "type": "function"
    },
    {
      "constant": true,
      "inputs": [],
      "name": "refContract",
      "outputs": [
        {
          "name": "",
          "type": "address"
        }
      ],
      "payable": false,
      "stateMutability": "view",
      "type": "function"
    },
    {
      "constant": false,
      "inputs": [
        {
          "name": "_id",
          "type": "bytes32"
        },
        {
          "name": "_player",
          "type": "address"
        },
        {
          "name": "_bankroller",
          "type": "address"
        },
        {
          "name": "_playerBalance",
          "type": "uint256"
        },
        {
          "name": "_bankrollerBalance",
          "type": "uint256"
        },
        {
          "name": "_openingBlock",
          "type": "uint256"
        },
        {
          "name": "_gameData",
          "type": "uint256[]"
        },
        {
          "name": "_N",
          "type": "bytes"
        },
        {
          "name": "_E",
          "type": "bytes"
        },
        {
          "name": "_sign",
          "type": "bytes"
        }
      ],
      "name": "openChannel",
      "outputs": [],
      "payable": false,
      "stateMutability": "nonpayable",
      "type": "function"
    },
    {
      "constant": true,
      "inputs": [],
      "name": "gameWL",
      "outputs": [
        {
          "name": "",
          "type": "address"
        }
      ],
      "payable": false,
      "stateMutability": "view",
      "type": "function"
    },
    {
      "constant": false,
      "inputs": [
        {
          "name": "_id",
          "type": "bytes32"
        }
      ],
      "name": "closeByTime",
      "outputs": [],
      "payable": false,
      "stateMutability": "nonpayable",
      "type": "function"
    },
    {
      "constant": true,
      "inputs": [],
      "name": "token",
      "outputs": [
        {
          "name": "",
          "type": "address"
        }
      ],
      "payable": false,
      "stateMutability": "view",
      "type": "function"
    },
    {
      "inputs": [
        {
          "name": "_token",
          "type": "address"
        },
        {
          "name": "_ref",
          "type": "address"
        },
        {
          "name": "_gameWL",
          "type": "address"
        },
        {
          "name": "_playerWL",
          "type": "address"
        },
        {
          "name": "_rsa",
          "type": "address"
        }
      ],
      "payable": false,
      "stateMutability": "nonpayable",
      "type": "constructor"
    },
    {
      "anonymous": false,
      "inputs": [
        {
          "indexed": false,
          "name": "action",
          "type": "string"
        },
        {
          "indexed": false,
          "name": "id",
          "type": "bytes32"
        },
        {
          "indexed": false,
          "name": "playerBalance",
          "type": "uint256"
        },
        {
          "indexed": false,
          "name": "bankrollerBalance",
          "type": "uint256"
        },
        {
          "indexed": false,
          "name": "session",
          "type": "uint256"
        }
      ],
      "name": "logChannel",
      "type": "event"
    },
    {
      "anonymous": false,
      "inputs": [
        {
          "indexed": false,
          "name": "action",
          "type": "string"
        },
        {
          "indexed": false,
          "name": "initiator",
          "type": "address"
        },
        {
          "indexed": false,
          "name": "id",
          "type": "bytes32"
        },
        {
          "indexed": false,
          "name": "session",
          "type": "uint256"
        },
        {
          "indexed": false,
          "name": "seed",
          "type": "bytes32"
        }
      ],
      "name": "logDispute",
      "type": "event"
    },
    {
      "constant": true,
      "inputs": [
        {
          "name": "_gameData",
          "type": "uint256[]"
        },
        {
          "name": "_bet",
          "type": "uint256"
        }
      ],
      "name": "checkGameData",
      "outputs": [
        {
          "name": "",
          "type": "bool"
        }
      ],
      "payable": false,
      "stateMutability": "view",
      "type": "function"
    },
    {
      "constant": true,
      "inputs": [
        {
          "name": "_gameData",
          "type": "uint256[]"
        },
        {
          "name": "_bet",
          "type": "uint256"
        },
        {
          "name": "_sigseed",
          "type": "bytes"
        }
      ],
      "name": "game",
      "outputs": [
        {
          "name": "_win",
          "type": "bool"
        },
        {
          "name": "_amount",
          "type": "uint256"
        }
      ],
      "payable": false,
      "stateMutability": "view",
      "type": "function"
    },
    {
      "constant": true,
      "inputs": [
        {
          "name": "_gameData",
          "type": "uint256[]"
        },
        {
          "name": "_bet",
          "type": "uint256"
        }
      ],
      "name": "getProfit",
      "outputs": [
        {
          "name": "_profit",
          "type": "uint256"
        }
      ],
      "payable": false,
      "stateMutability": "pure",
      "type": "function"
    },
    {
      "constant": true,
      "inputs": [
        {
          "name": "_sigseed",
          "type": "bytes"
        },
        {
          "name": "_min",
          "type": "uint256"
        },
        {
          "name": "_max",
          "type": "uint256"
        }
      ],
      "name": "generateRnd",
      "outputs": [
        {
          "name": "",
          "type": "uint256"
        }
      ],
      "payable": false,
      "stateMutability": "pure",
      "type": "function"
    }
  ],
  "bytecode": "0x6080604052607860045534801561001557600080fd5b5060405160a08061313283398101604081815282516020808501518386015160608088015160809889015160058054600160a060020a0319908116600160a060020a03998a1617909155600680548216968916969096179095556007805486169488169490941790935560088054851691871691909117905560098054841695909216949094179055600080546042921691909117815560c08501845268056bc75e2d631000008086526001928601839052601994860185905292850184905294840183905260a090930182905282556002919091556003805460ff191690911761ff0019166119001762ff00001916621900001763ff0000001916631900000017905561300990819061012990396000f3006080604052600436106101035763ffffffff60e060020a60003504166311be199781146101085780634904b2511461014757806355cd5c10146101f1578063562a6c781461025a578063646295221461028b578063698b2fc51461036557806379502c55146103d15780637a7ebd7b1461041e5780638468ec681461049f57806397aba7f9146104b4578063b5a4a14614610512578063b90b516f14610574578063c352998c146105ea578063ca4b208b1461069e578063dd754511146106b3578063df97d31c146106c8578063e104b6b3146106dd578063eaea517414610811578063ed78462614610826578063f632262f1461083e578063fc0c546a146108a9575b600080fd5b34801561011457600080fd5b506101206004356108be565b604080519384526020840192909252600160a060020a031682820152519081900360600190f35b34801561015357600080fd5b5060408051606435600481810135602081810285810182019096528185526101ef95833595602480359660443596369690956084959290930192909182918501908490808284375050604080516020601f818a01358b0180359182018390048302840183018552818452989b8a359b909a9099940197509195509182019350915081908401838280828437509497506108e89650505050505050565b005b3480156101fd57600080fd5b5060408051602060048035808201358381028086018501909652808552610248953695939460249493850192918291850190849080828437509497505093359450610d319350505050565b60408051918252519081900360200190f35b34801561026657600080fd5b5061026f610d9d565b60408051600160a060020a039092168252519081900360200190f35b34801561029757600080fd5b5060408051602060046024803582810135601f81018590048502860185019096528585526101ef95833595369560449491939091019190819084018382808284375050604080516020601f89358b018035918201839004830284018301909452808352979a99988101979196509182019450925082915084018382808284375050604080516020601f89358b018035918201839004830284018301909452808352979a999881019791965091820194509250829150840183828082843750949750610dac9650505050505050565b34801561037157600080fd5b50604080516020600460a43581810135601f81018490048402850184019095528484526101ef9482359460248035956044359560643595608435953695929460c49492019181908401838280828437509497506112639650505050505050565b3480156103dd57600080fd5b506103e661165c565b60408051968752602087019590955260ff938416868601529183166060860152821660808501521660a0830152519081900360c00190f35b34801561042a57600080fd5b50610436600435611687565b604051808a600381111561044657fe5b60ff168152600160a060020a03998a166020820152979098166040808901919091526060880196909652608087019490945260a086019290925260c085015260e084015261010083015251908190036101200192509050f35b3480156104ab57600080fd5b5061026f6116d9565b3480156104c057600080fd5b5060408051602060046024803582810135601f810185900485028601850190965285855261026f9583359536956044949193909101919081908401838280828437509497506116e89650505050505050565b34801561051e57600080fd5b506040805160206004803580820135601f810184900484028501840190955284845261024894369492936024939284019190819084018382808284375094975050843595505050602090920135915061176f9050565b34801561058057600080fd5b50604080516020601f60c4356004818101359283018490048402850184019095528184526101ef94803594602480359560443595606435956084359560a4351515953695919460e49491939092019181908401838280828437509497506118209650505050505050565b3480156105f657600080fd5b50604080516020600480358082013583810280860185019096528085526106839536959394602494938501929182918501908490808284375050604080516020601f818a01358b0180359182018390048302840183018552818452989b8a359b909a909994019750919550918201935091508190840183828082843750949750611b679650505050505050565b60408051921515835260208301919091528051918290030190f35b3480156106aa57600080fd5b5061026f611be3565b3480156106bf57600080fd5b50610248611bf2565b3480156106d457600080fd5b5061026f611bf8565b3480156106e957600080fd5b506040805160c435600481810135602081810285810182019096528185526101ef95833595600160a060020a036024803582169760443590921696606435966084359660a435963696939560e4950192918291908501908490808284375050604080516020601f89358b018035918201839004830284018301909452808352979a99988101979196509182019450925082915084018382808284375050604080516020601f89358b018035918201839004830284018301909452808352979a99988101979196509182019450925082915084018382808284375050604080516020601f89358b018035918201839004830284018301909452808352979a999881019791965091820194509250829150840183828082843750949750611c079650505050505050565b34801561081d57600080fd5b5061026f612442565b34801561083257600080fd5b506101ef600435612451565b34801561084a57600080fd5b506040805160206004803580820135838102808601850190965280855261089595369593946024949385019291829185019084908082843750949750509335945061251a9350505050565b604080519115158252519081900360200190f35b3480156108b557600080fd5b5061026f612581565b600b60205260009081526040902080546002820154600390920154909190600160a060020a031683565b6000806108f3612ea6565b6000898152600a602052604090819020815161014081019092528054829060ff16600381111561091f57fe5b600381111561092a57fe5b81528154600160a060020a0361010091829004811660208085019190915260018501549091166040808501919091526002850154606085015260038501546080850152600485015460a0850152600585015460c0850152600685015460e08501526007850180548251818502810185019093528083529390940193909290918301828280156109d857602002820191906000526020600020905b8154815260200190600101908083116109c4575b505050918352505060089190910154602091820152810151600160a060020a0316331480610a1b57508060400151600160a060020a031633600160a060020a0316145b1515610a2657600080fd5b438160e00151118015610a5b5750600181516003811115610a4357fe5b1480610a5b5750600381516003811115610a5957fe5b145b1515610a6657600080fd5b60008a8152600a602052604090206005810154909450610a8d90600163ffffffff61259016565b8914610a9857600080fd5b610b6f8a8a8a8a8a604051602001808660001916600019168152602001858152602001848152602001838051906020019060200280838360005b83811015610aea578181015183820152602001610ad2565b50505050919091019283525050604080518083038152602092830191829052805190965090945084935090850191508083835b60208310610b3c5780518252601f199092019160209182019101610b1d565b6001836020036101000a0380198251168184511680821785525050505050509050019150506040518091039020866116e8565b8454909350600160a060020a038085166101009092041614610b9057600080fd5b610b9a878961251a565b1515610ba557600080fd5b8360030154610bb4888a610d31565b1115610bbf57600080fd5b6004546006850154610bd7904363ffffffff6125a616565b1015610bf757600454610bf190439063ffffffff61259016565b60068501555b60408051608081018252878152602081018990529081018990523360608201526004850154909250610c2f908963ffffffff61259016565b600485015560008a8152600b60209081526040909120835181558184015180518593610c62926001850192910190612ece565b5060408281015160028301556060928301516003928301805473ffffffffffffffffffffffffffffffffffffffff1916600160a060020a03909216919091179055865460ff1916909117865580513360208201528082018d90529182018b90526080820188905260a0808352600c908301527f6f70656e2064697370757465000000000000000000000000000000000000000060c0830152517fa96a4cd9eb9d5917ce9fbed6d8e3cfa2fa5a8dfbc43704a8b8c78138e2f5b89f9181900360e00190a150505050505050505050565b600080836000815181101515610d4357fe5b602090810290910101519050610d9583610d89612710610d70610d7c868261ffff8563ffffffff6125b816565b9063ffffffff6125e316565b889063ffffffff6125b816565b9063ffffffff6125a616565b949350505050565b600854600160a060020a031681565b6000848152600a60209081526040808320600b9092529091206003825460ff166003811115610dd757fe5b14610de157600080fd5b6001820154600160a060020a03163314610dfa57600080fd5b81546003820154600160a060020a03908116610100909204161415610e2e5760068201544310610e2957600080fd5b610e5b565b60018201546003820154600160a060020a0390811691161415610e5b5760068201544311610e5b57600080fd5b60088201546040518651879190819060208401908083835b60208310610e925780518252601f199092019160209182019101610e73565b51815160209384036101000a60001901801990921691161790526040519190930181900381208a519095508a945090928392508401908083835b60208310610eeb5780518252601f199092019160209182019101610ecc565b51815160209384036101000a6000190180199092169116179052604080519290940182900382208282019790975281840196909652825180820384018152606090910192839052805190959294508493509185019190508083835b60208310610f655780518252601f199092019160209182019101610f46565b6001836020036101000a038019825116818451168082178552505050505050905001915050604051809103902060001916141515610fa257600080fd5b6009546005830154600160a060020a039091169063c658da51908890610fcf90600163ffffffff61259016565b8460020154856001018660000154604051602001808660001916600019168152602001858152602001848152602001838054801561102c57602002820191906000526020600020905b815481526020019060010190808311611018575b505091825250604080518083038152602092830191829052805190965090945084935090850191508083835b602083106110775780518252601f199092019160209182019101611058565b51815160209384036101000a600019018019909216911617905260405191909301819003812063ffffffff871660e060020a028252600482018181526080602484019081528e5160848501528e519297508e96508d958d9550919390926044820192606483019260a401919089019080838360005b838110156111045781810151838201526020016110ec565b50505050905090810190601f1680156111315780820380516001836020036101000a031916815260200191505b50848103835286518152865160209182019188019080838360005b8381101561116457818101518382015260200161114c565b50505050905090810190601f1680156111915780820380516001836020036101000a031916815260200191505b50848103825285518152855160209182019187019080838360005b838110156111c45781810151838201526020016111ac565b50505050905090810190601f1680156111f15780820380516001836020036101000a031916815260200191505b50975050505050505050602060405180830381600087803b15801561121557600080fd5b505af1158015611229573d6000803e3d6000fd5b505050506040513d602081101561123f57600080fd5b5051151561124c57600080fd5b61125b868260020154856125fa565b505050505050565b6000868152600a602052604080822081516101408101909252805483929190829060ff16600381111561129257fe5b600381111561129d57fe5b81528154600160a060020a0361010091829004811660208085019190915260018501549091166040808501919091526002850154606085015260038501546080850152600485015460a0850152600585015460c0850152600685015460e085015260078501805482518185028101850190935280835293909401939092909183018282801561134b57602002820191906000526020600020905b815481526020019060010190808311611337575b505050918352505060089190910154602091820152810151600160a060020a031633148061138e57508060400151600160a060020a031633600160a060020a0316145b151561139957600080fd5b438160e001511180156113ce57506001815160038111156113b657fe5b14806113ce57506003815160038111156113cc57fe5b145b15156113d957600080fd5b6000898152600a602090815260409182902082518083018d90528084018c9052606081018b9052608081018a905260a08082018a90528451808303909101815260c090910193849052805191965061148a939092909182918401908083835b602083106114575780518252601f199092019160209182019101611438565b6001836020036101000a0380198251168184511680821785525050505050509050019150506040518091039020856116e8565b915084836005015410151561149e57600080fd5b600160a060020a0382163314156114b457600080fd5b8254600160a060020a038381166101009092041614806114e357506001830154600160a060020a038381169116145b15156114ee57600080fd5b600383015460028401546115079163ffffffff61259016565b611517898963ffffffff61259016565b1461152157600080fd5b6004546006840154611539904363ffffffff6125a616565b10156115595760045461155390439063ffffffff61259016565b60068401555b6005830185905560028301889055600380840188905560048401879055835460ff16600381111561158657fe5b14156115de57825460ff19166001908117845560008a8152600b60205260408120818155916115b790830182612f19565b5060006002820155600301805473ffffffffffffffffffffffffffffffffffffffff191690555b60408051602081018b90528082018a9052606081018990526080810187905260a0808252600e908201527f757064617465206368616e6e656c00000000000000000000000000000000000060c08201529051600080516020612fbe8339815191529181900360e00190a161165189612767565b505050505050505050565b60015460025460035460ff808216916101008104821691620100008204811691630100000090041686565b600a602052600090815260409020805460018201546002830154600384015460048501546005860154600687015460089097015460ff871697610100909704600160a060020a03908116979616959089565b600954600160a060020a031681565b6000806000806116f785612832565b60408051600080825260208083018085528d905260ff8516838501526060830187905260808301869052925195985093965091945060019360a0808401949293601f19830193908390039091019190865af115801561175a573d6000803e3d6000fd5b5050604051601f190151979650505050505050565b6000700100000000000000000000000000000000821061178e57600080fd5b6117b1836117a5600181868463ffffffff6125a616565b9063ffffffff61259016565b846040518082805190602001908083835b602083106117e15780518252601f1990920191602091820191016117c2565b5181516020939093036101000a600019018019909116921691909117905260405192018290039091209250505081151561181757fe5b06949350505050565b6000878152600a602052604080822081516101408101909252805483929190829060ff16600381111561184f57fe5b600381111561185a57fe5b81528154600160a060020a0361010091829004811660208085019190915260018501549091166040808501919091526002850154606085015260038501546080850152600485015460a0850152600585015460c0850152600685015460e085015260078501805482518185028101850190935280835293909401939092909183018282801561190857602002820191906000526020600020905b8154815260200190600101908083116118f4575b505050918352505060089190910154602091820152810151600160a060020a031633148061194b57508060400151600160a060020a031633600160a060020a0316145b151561195657600080fd5b438160e0015111801561198b575060018151600381111561197357fe5b148061198b575060038151600381111561198957fe5b145b151561199657600080fd5b60008a8152600a6020526040902092508415156119b257600080fd5b6040805160208082018d90528183018c9052606082018b9052608082018a905260a082018990527f01000000000000000000000000000000000000000000000000000000000000008815150260c0830152825160a181840301815260c1909201928390528151611a459391829190840190808383602083106114575780518252601f199092019160209182019101611438565b9150611a628360030154846002015461259090919063ffffffff16565b611a728a8a63ffffffff61259016565b14611a7c57600080fd5b600160a060020a038216331415611a9257600080fd5b8254600160a060020a03838116610100909204161480611ac157506001830154600160a060020a038381169116145b1515611acc57600080fd5b6002830189905560038301889055600583018690556004830187905560408051602081018c90528082018b9052606081018a90526080810188905260a08082526010908201527f636c6f736520627920636f6e73656e740000000000000000000000000000000060c08201529051600080516020612fbe8339815191529181900360e00190a1611b5b8a612868565b50505050505050505050565b6000806000806000806000611b7c8a8a61251a565b506001945061ffff9350611b9188868661176f565b9250896000815181101515611ba257fe5b906020019060200201519150611bb88a8a610d31565b905082821115611bce5760018196509650611bd6565b600089965096505b5050505050935093915050565b600054600160a060020a031681565b60045481565b600654600160a060020a031681565b6000611c11612f37565b60008c8152600a602052604081205460ff166003811115611c2e57fe5b14611c3857600080fd5b43611c4a88601463ffffffff61259016565b1015611c5557600080fd5b600854604080517f15525991000000000000000000000000000000000000000000000000000000008152600160a060020a038e8116600483015291518c9392909216916315525991916024808201926020929091908290030181600087803b158015611cc057600080fd5b505af1158015611cd4573d6000803e3d6000fd5b505050506040513d6020811015611cea57600080fd5b50511015611cf757600080fd5b600754604080517f30ccebb50000000000000000000000000000000000000000000000000000000081523060048201529051600160a060020a03909216916330ccebb5916024808201926020929091908290030181600087803b158015611d5d57600080fd5b505af1158015611d71573d6000803e3d6000fd5b505050506040513d6020811015611d8757600080fd5b50511515611d9457600080fd5b611f568c8c8c8c8c8c8c8c8c604051602001808a6000191660001916815260200189600160a060020a0316600160a060020a03166c0100000000000000000000000002815260140188600160a060020a0316600160a060020a03166c01000000000000000000000000028152601401878152602001868152602001858152602001848051906020019060200280838360005b83811015611e3e578181015183820152602001611e26565b5050505090500183805190602001908083835b60208310611e705780518252601f199092019160209182019101611e51565b51815160209384036101000a600019018019909216911617905285519190930192850191508083835b60208310611eb85780518252601f199092019160209182019101611e99565b6001836020036101000a03801982511681845116808217855250505050505090500199505050505050505050506040516020818303038152906040526040518082805190602001908083835b60208310611f235780518252601f199092019160209182019101611f04565b6001836020036101000a0380198251168184511680821785525050505050509050019150506040518091039020846116e8565b91508a600160a060020a031682600160a060020a03161480611f89575089600160a060020a031682600160a060020a0316145b8015611f9e575033600160a060020a03831614155b1515611fa957600080fd5b33600160a060020a038c161480611fc8575033600160a060020a038b16145b1515611fd357600080fd5b600554604080517f23b872dd000000000000000000000000000000000000000000000000000000008152600160a060020a038e81166004830152306024830152604482018d9052915191909216916323b872dd9160648083019260209291908290030181600087803b15801561204857600080fd5b505af115801561205c573d6000803e3d6000fd5b505050506040513d602081101561207257600080fd5b5051151561207f57600080fd5b600554604080517f23b872dd000000000000000000000000000000000000000000000000000000008152600160a060020a038d81166004830152306024830152604482018c9052915191909216916323b872dd9160648083019260209291908290030181600087803b1580156120f457600080fd5b505af1158015612108573d6000803e3d6000fd5b505050506040513d602081101561211e57600080fd5b5051151561212b57600080fd5b60408051610140810190915280600181526020018c600160a060020a031681526020018b600160a060020a031681526020018a8152602001898152602001600081526020016000815260200161218b60964361259090919063ffffffff16565b8152602001878152602001866040518082805190602001908083835b602083106121c65780518252601f1990920191602091820191016121a7565b51815160209384036101000a60001901801990921691161790526040519190930181900381208b519095508b945090928392508401908083835b6020831061221f5780518252601f199092019160209182019101612200565b51815160209384036101000a6000190180199092169116179052604080519290940182900382208282019790975281840196909652825180820384018152606090910192839052805190959294508493509185019190508083835b602083106122995780518252601f19909201916020918201910161227a565b6001836020036101000a038019825116818451168082178552505050505050905001915050604051809103902060001916815250905080600a60008e6000191660001916815260200190815260200160002060008201518160000160006101000a81548160ff0219169083600381111561230f57fe5b0217905550602082810151825474ffffffffffffffffffffffffffffffffffffffff001916610100600160a060020a039283168102919091178455604085015160018501805473ffffffffffffffffffffffffffffffffffffffff19169190931617909155606084015160028401556080840151600384015560a0840151600484015560c0840151600584015560e0840151600684015583015180516123bb9260078501920190612ece565b50610120919091015160089091015560408051602081018e90528082018b9052606081018a90526000608082015260a0808252600c908201527f6f70656e206368616e6e656c000000000000000000000000000000000000000060c08201529051600080516020612fbe8339815191529181900360e00190a1505050505050505050505050565b600754600160a060020a031681565b6000818152600a602052604090206006810154431161246f57600080fd5b6003815460ff16600381111561248157fe5b14156124955761249082612b38565b612516565b6002810154600382015460058301546040805160208101879052808201949094526060840192909252608083015260a0808352600d908301527f636c6f73652062792074696d650000000000000000000000000000000000000060c083015251600080516020612fbe8339815191529181900360e00190a161251682612868565b5050565b60008083600081518110151561252c57fe5b9060200190602002015190506001800154831015801561254e57506001548311155b151561255957600080fd5b60008111801561256a575061fae281105b151561257557600080fd5b600191505b5092915050565b600554600160a060020a031681565b60008282018381101561259f57fe5b9392505050565b6000828211156125b257fe5b50900390565b6000808315156125cb576000915061257a565b508282028284828115156125db57fe5b041461259f57fe5b60008082848115156125f157fe5b04949350505050565b6000838152600a60209081526040808320600b835281842060010180548351818602810186019094528084528594929361266d939092919083018282801561266157602002820191906000526020600020905b81548152602001906001019080831161264d575b50505050508686611b67565b909350915082156126b157600381015461268d908363ffffffff6125a616565b600382015560028101546126a7908363ffffffff61259016565b60028201556126e6565b60028101546126c6908663ffffffff6125a616565b600282015560038101546126e0908663ffffffff61259016565b60038201555b60028101546003820154600583015460408051602081018b9052808201949094526060840192909252608083015260a0808352600f908301527f7265736f6c76652064697370757465000000000000000000000000000000000060c083015251600080516020612fbe8339815191529181900360e00190a161125b86612868565b600280546000838152600a6020526040902090910154108061279857506000818152600a6020526040902060030154155b1561282f576000818152600a6020908152604091829020600281015460038201546005909201548451938401869052838501919091526060830191909152608082015260a08082526009908201527f67616d65206f766572000000000000000000000000000000000000000000000060c08201529051600080516020612fbe8339815191529181900360e00190a161282f81612868565b50565b60208101516040820151604183015160ff16601b81148061285657508060ff16601c145b151561286157600080fd5b9193909250565b6000818152600a60205260408120600481015490919081908190819061289d906103e890610d7090601463ffffffff6125b816565b6003549094506128bd90606490610d70908790610100900460ff166125b8565b9250846002015491506000905084600301548411156128ed576128e6828563ffffffff6125a616565b915061290b565b61290884610d8985886003015461259090919063ffffffff16565b90505b8454612925906101009004600160a060020a031685612c1d565b6005546001860154604080517fa9059cbb000000000000000000000000000000000000000000000000000000008152600160a060020a039283166004820152602481018590529051919092169163a9059cbb91604480830192600092919082900301818387803b15801561299857600080fd5b505af11580156129ac573d6000803e3d6000fd5b50506005548754604080517fa9059cbb000000000000000000000000000000000000000000000000000000008152610100909204600160a060020a0390811660048401526024830188905290519216935063a9059cbb925060448082019260009290919082900301818387803b158015612a2557600080fd5b505af1158015612a39573d6000803e3d6000fd5b5050865460ff1916600290811780895560009189018290556003808a019290925590925060ff16905081811115612a6c57fe5b1415612ab8576000868152600b6020526040812081815590612a916001830182612f19565b5060006002820155600301805473ffffffffffffffffffffffffffffffffffffffff191690555b60028501546003860154600587015460408051602081018b9052808201949094526060840192909252608083015260a0808352600d908301527f636c6f7365206368616e6e656c0000000000000000000000000000000000000060c083015251600080516020612fbe8339815191529181900360e00190a1505050505050565b6000818152600a60209081526040808320600b90925282208154600382015492939192600160a060020a039081166101009092041614612b7757600080fd5b612bd782600101805480602002602001604051908101604052809291908181526020018280548015612bc857602002820191906000526020600020905b815481526020019060010190808311612bb4575b50505050508360020154610d31565b6003840154909150612bef908263ffffffff6125a616565b60038401556002830154612c09908263ffffffff61259016565b6002840155612c1784612868565b50505050565b600654604080517f15a52302000000000000000000000000000000000000000000000000000000008152600160a060020a038581166004830152825160009485949216926315a5230292602480830193919282900301818787803b158015612c8457600080fd5b505af1158015612c98573d6000803e3d6000fd5b505050506040513d6040811015612cae57600080fd5b508051602090910151600554600054600354939550919350600160a060020a039081169263a9059cbb9290911690612cf790606490610d7090899060ff1663ffffffff6125b816565b6040518363ffffffff1660e060020a0281526004018083600160a060020a0316600160a060020a0316815260200182815260200192505050600060405180830381600087803b158015612d4957600080fd5b505af1158015612d5d573d6000803e3d6000fd5b5050600554600354600160a060020a03909116925063a9059cbb91508490612d9690606490610d7090899062010000900460ff166125b8565b6040518363ffffffff1660e060020a0281526004018083600160a060020a0316600160a060020a0316815260200182815260200192505050600060405180830381600087803b158015612de857600080fd5b505af1158015612dfc573d6000803e3d6000fd5b5050600554600354600160a060020a03909116925063a9059cbb91508390612e3690606490610d709089906301000000900460ff166125b8565b6040518363ffffffff1660e060020a0281526004018083600160a060020a0316600160a060020a0316815260200182815260200192505050600060405180830381600087803b158015612e8857600080fd5b505af1158015612e9c573d6000803e3d6000fd5b5050505050505050565b6040805160808101825260008082526060602083018190529282018190529181019190915290565b828054828255906000526020600020908101928215612f09579160200282015b82811115612f09578251825591602001919060010190612eee565b50612f15929150612fa0565b5090565b508054600082559060005260206000209081019061282f9190612fa0565b60408051610140810190915280600081526020016000600160a060020a031681526020016000600160a060020a03168152602001600081526020016000815260200160008152602001600081526020016000815260200160608152602001600080191681525090565b612fba91905b80821115612f155760008155600101612fa6565b905600cf0d23e4e524385efe626d64e9a58ae4a824ab23c37d387469ea22d5ccc456cca165627a7a723058203ab4b923aeb836436a076a3428060afc710da1925e92e5a5c8c192d67b4655ca0029",
  "source": "pragma solidity ^0.4.19;\n\nimport './lib/oneStepGame.sol';\n\n\n\ncontract myDAppGame is oneStepGame {\n\n    /**\n    @notice constructor\n    @param _token address of token contract\n    @param _ref address of referrer contract\n    @param _gameWL address of games whitelist contract\n    @param _playerWL address of players whitelist contract\n    @param _rsa address of rsa contract\n    */\n    constructor (\n        ERC20Interface _token,\n        RefInterface _ref,\n        GameWLinterface _gameWL,\n        PlayerWLinterface _playerWL,\n        RSA _rsa\n    )\n        oneStepGame(_token, _ref, _gameWL, _playerWL, _rsa) public\n    {\n        developer = 0x42;\n        \n        config = Config({\n            maxBet: 100 ether,\n            minBet: 1,\n            gameDevReward: 25,\n            bankrollReward: 25,\n            platformReward: 25,\n            refererReward: 25\n        });   \n    }\n\n   /** \n    @notice interface for check game data\n    @param _gameData Player's game data\n    @param _bet Player's bet\n    @return result boolean\n    */\n    function checkGameData(uint[] _gameData, uint _bet) public view returns (bool) {\n        uint playerNumber = _gameData[0];\n        require(_bet >= config.minBet && _bet <= config.maxBet);\n        require(playerNumber > 0 && playerNumber < 64226);\n        return true;\n    }\n\n    /** \n    @notice interface for game logic\n    @param _gameData Player's game data\n    @param _bet Player's bet\n    @param _sigseed random seed for generate rnd\n    */\n    function game(uint[] _gameData, uint _bet, bytes _sigseed) public view returns(bool _win, uint _amount) {   \n        checkGameData(_gameData, _bet);\n        uint _min = 1;\n        uint _max = 65535;\n        uint _rndNumber = generateRnd(_sigseed, _min, _max);\n        //gameData[0] - player number    \n        uint _playerNumber = _gameData[0];\n        uint _profit = getProfit(_gameData, _bet);\n\n        // Game logic\n        if (_playerNumber > _rndNumber) {\n            // player win profit\n            return(true, _profit);\n        } else {\n            // player lose bet\n            return(false, _bet);\n        }\n    }\n\n    /** \n    @notice profit calculation\n    @param _gameData Player's game data\n    @param _bet Player's bet\n    @return profit\n    */\n    function getProfit(uint[] _gameData, uint _bet) public pure returns(uint _profit) {\n        uint _playerNumber = _gameData[0];\n        _profit = (_bet.mul(uint(65535).mul(10000).div(_playerNumber)).div(10000)).sub(_bet);\n    }\n\n    /**\n    @notice Generate random number from sig\n    @param _sigseed Sign hash for creation random number\n    @param _min Minimal random number\n    @param _max Maximal random number\n    @return random number\n    */\n    function generateRnd(bytes _sigseed, uint _min, uint _max) public pure returns(uint) {\n        require(_max < 2**128);\n        return uint256(keccak256(_sigseed)) % (_max.sub(_min).add(1)).add(_min);\n    }\n}",
  "sourcePath": "/Users/magnusducatuslt/env/integration_tests/node_modules/dc-scripts/_env/contracts/myDAppGame.sol",
  "compiler": {
    "name": "solc",
    "version": "0.4.24+commit.e67f0147.Emscripten.clang"
  },
  "schemaVersion": "2.0.1",
  "updatedAt": "2018-09-17T08:24:54.359Z"
}